S01A000054696D6572305F4E6F726D616C204D6F64652E737265636C
S11300000C9434000C943E000C943E000C943E007E
S11300100C943E000C943E000C943E000C943E0064
S11300200C943E000C943E000C943E000C943E0054
S11300300C943E000C943E000C943E000C943E0044
S11300400C943E000C943E000C943E000C943E0034
S11300500C943E000C943E000C943E000C943E0024
S11300600C943E000C943E0011241FBECFEFD8E048
S1130070DEBFCDBF0E9451000C9459000C940000C7
S113008084B58C7F84BD85B5897F85BD85B5816048
S113009085BD16BC03C085B3816085BBA89BFBCF1F
S11300A0FDCF84B1846084B985B1846085B90E9430
S10900B04000F894FFCFAC
S9030000FC
