S017000054696D6572305F435443204D6F64652E73726563FE
S11300000C9434000C943E000C943E000C943E007E
S11300100C943E000C943E000C943E000C943E0064
S11300200C943E000C943E000C943E000C943E0054
S11300300C943E000C943E000C943E000C943E0044
S11300400C943E000C943E000C943E000C943E0034
S11300500C943E000C943E000C943E000C943E0024
S11300600C943E000C943E0011241FBECFEFD8E048
S1130070DEBFCDBF0E945A000C9468000C940000AF
S113008084B5826084BD84B58E7F84BD85B583606C
S113009085BD89EF87BD80E090E004C016BCA99BB4
S11300A0FECF0196883E23E09207C4F385B5887F8E
S11300B085BD089584B1846084B985B1846085B9AF
S11300C00E94400085B18B7F85B90E944000F5CF26
S10700D0F894FFCFCE
S9030000FC
